{
  "contractName": "FlightSuretyData",
  "abi": [
    {
      "inputs": [
        {
          "name": "airlineAddress",
          "type": "address"
        }
      ],
      "payable": true,
      "stateMutability": "payable",
      "type": "constructor"
    },
    {
      "payable": true,
      "stateMutability": "payable",
      "type": "fallback"
    },
    {
      "constant": true,
      "inputs": [],
      "name": "isOperational",
      "outputs": [
        {
          "name": "",
          "type": "bool"
        }
      ],
      "payable": false,
      "stateMutability": "view",
      "type": "function"
    },
    {
      "constant": false,
      "inputs": [
        {
          "name": "mode",
          "type": "bool"
        }
      ],
      "name": "setOperatingStatus",
      "outputs": [],
      "payable": false,
      "stateMutability": "nonpayable",
      "type": "function"
    },
    {
      "constant": true,
      "inputs": [],
      "name": "testRequireOperational",
      "outputs": [],
      "payable": false,
      "stateMutability": "view",
      "type": "function"
    },
    {
      "constant": true,
      "inputs": [
        {
          "name": "airlineAddress",
          "type": "address"
        }
      ],
      "name": "isRegistered",
      "outputs": [
        {
          "name": "",
          "type": "bool"
        }
      ],
      "payable": false,
      "stateMutability": "view",
      "type": "function"
    },
    {
      "constant": true,
      "inputs": [
        {
          "name": "airlineAddress",
          "type": "address"
        }
      ],
      "name": "isFunded",
      "outputs": [
        {
          "name": "",
          "type": "bool"
        }
      ],
      "payable": false,
      "stateMutability": "view",
      "type": "function"
    },
    {
      "constant": false,
      "inputs": [
        {
          "name": "newMaximum",
          "type": "uint256"
        }
      ],
      "name": "modifyMaximumPurchase",
      "outputs": [],
      "payable": false,
      "stateMutability": "nonpayable",
      "type": "function"
    },
    {
      "constant": false,
      "inputs": [
        {
          "name": "airlineAddress",
          "type": "address"
        }
      ],
      "name": "registerAirline",
      "outputs": [],
      "payable": false,
      "stateMutability": "nonpayable",
      "type": "function"
    },
    {
      "constant": false,
      "inputs": [
        {
          "name": "airlineAddress",
          "type": "address"
        },
        {
          "name": "flightId",
          "type": "string"
        },
        {
          "name": "timestamp",
          "type": "uint256"
        }
      ],
      "name": "registerFlight",
      "outputs": [],
      "payable": false,
      "stateMutability": "nonpayable",
      "type": "function"
    },
    {
      "constant": false,
      "inputs": [
        {
          "name": "flightId",
          "type": "string"
        },
        {
          "name": "amount",
          "type": "uint256"
        }
      ],
      "name": "buyInsurance",
      "outputs": [],
      "payable": true,
      "stateMutability": "payable",
      "type": "function"
    },
    {
      "constant": false,
      "inputs": [
        {
          "name": "flightKey",
          "type": "bytes32"
        }
      ],
      "name": "creditInsurees",
      "outputs": [],
      "payable": false,
      "stateMutability": "nonpayable",
      "type": "function"
    },
    {
      "constant": false,
      "inputs": [],
      "name": "getWithdrawableFunds",
      "outputs": [
        {
          "name": "",
          "type": "uint256"
        }
      ],
      "payable": true,
      "stateMutability": "payable",
      "type": "function"
    },
    {
      "constant": false,
      "inputs": [],
      "name": "withdrawPayoutFunds",
      "outputs": [],
      "payable": true,
      "stateMutability": "payable",
      "type": "function"
    },
    {
      "constant": false,
      "inputs": [
        {
          "name": "airlineAddress",
          "type": "address"
        },
        {
          "name": "funding",
          "type": "uint256"
        }
      ],
      "name": "fund",
      "outputs": [],
      "payable": true,
      "stateMutability": "payable",
      "type": "function"
    }
  ],
  "bytecode": "0x60806040526001600060146101000a81548160ff02191690831515021790555060006001556001600855604051602080611deb83398101806040528101908080519060200190929190505050336000806101000a81548173ffffffffffffffffffffffffffffffffffffffff021916908373ffffffffffffffffffffffffffffffffffffffff1602179055506060604051908101604052806001151581526020016000151581526020016000815250600260008373ffffffffffffffffffffffffffffffffffffffff1673ffffffffffffffffffffffffffffffffffffffff16815260200190815260200160002060008201518160000160006101000a81548160ff02191690831515021790555060208201518160000160016101000a81548160ff021916908315150217905550604082015181600101559050506001808190555050611c9a806101516000396000f3006080604052600436106100c5576000357c0100000000000000000000000000000000000000000000000000000000900463ffffffff1680630cf922d5146100c7578063110466ed146100ff5780633cc0be9c1461012e5780635689b249146101935780637b1837de146101ee578063914977551461022e578063a72599b11461025b578063aa304ce914610279578063bdfd987714610290578063c3c5a547146102d3578063cc2f6eba1461032e578063cd905dff1461035f578063dc26ee3a1461038e575b005b6100fd60048036038101908080359060200190820180359060200191909192939192939080359060200190929190505050610398565b005b34801561010b57600080fd5b5061012c60048036038101908080351515906020019092919050505061083a565b005b34801561013a57600080fd5b50610191600480360381019080803573ffffffffffffffffffffffffffffffffffffffff1690602001909291908035906020019082018035906020019190919293919293908035906020019092919050505061091b565b005b34801561019f57600080fd5b506101d4600480360381019080803573ffffffffffffffffffffffffffffffffffffffff169060200190929190505050610b7d565b604051808215151515815260200191505060405180910390f35b61022c600480360381019080803573ffffffffffffffffffffffffffffffffffffffff16906020019092919080359060200190929190505050610c9a565b005b34801561023a57600080fd5b5061025960048036038101908080359060200190929190505050610dea565b005b610263610f62565b6040518082815260200191505060405180910390f35b34801561028557600080fd5b5061028e6110f5565b005b34801561029c57600080fd5b506102d1600480360381019080803573ffffffffffffffffffffffffffffffffffffffff1690602001909291905050506111a1565b005b3480156102df57600080fd5b50610314600480360381019080803573ffffffffffffffffffffffffffffffffffffffff16906020019092919050505061130d565b604051808215151515815260200191505060405180910390f35b34801561033a57600080fd5b5061035d600480360381019080803560001916906020019092919050505061142a565b005b34801561036b57600080fd5b50610374611723565b604051808215151515815260200191505060405180910390f35b610396611739565b005b60008060149054906101000a900460ff161515610443576040517f08c379a00000000000000000000000000000000000000000000000000000000081526004018080602001828103825260258152602001807f436f6e74726163742069732063757272656e746c79206e6f74206f706572617481526020017f696f6e616c00000000000000000000000000000000000000000000000000000081525060400191505060405180910390fd5b3273ffffffffffffffffffffffffffffffffffffffff163373ffffffffffffffffffffffffffffffffffffffff161415156104e6576040517f08c379a00000000000000000000000000000000000000000000000000000000081526004018080602001828103825260158152602001807f436f6e747261637473206e6f7420616c6c6f776564000000000000000000000081525060200191505060405180910390fd5b60008211151561055e576040517f08c379a00000000000000000000000000000000000000000000000000000000081526004018080602001828103825260188152602001807f5061796d656e74206d757374206d6f7265207468616e2030000000000000000081525060200191505060405180910390fd5b600854821015156105fd576040517f08c379a00000000000000000000000000000000000000000000000000000000081526004018080602001828103825260238152602001807f4d6178696d756d20696e737572616e636520707572636861736520657863656581526020017f646564000000000000000000000000000000000000000000000000000000000081525060400191505060405180910390fd5b61065f3385858080601f0160208091040260200160405190810160405280939291908181526020018383808284378201915050505050506003878760405180838380828437820191505092505050908152602001604051809103902054611a0f565b90506000600560003373ffffffffffffffffffffffffffffffffffffffff1673ffffffffffffffffffffffffffffffffffffffff168152602001908152602001600020600083600019166000191681526020019081526020016000205411151515610758576040517f08c379a00000000000000000000000000000000000000000000000000000000081526004018080602001828103825260398152602001807f50617373656e6765722068617320616c7265616479207075726368617365642081526020017f696e737572616e636520666f72207468697320666c696768740000000000000081525060400191505060405180910390fd5b6006600082600019166000191681526020019081526020016000203390806001815401808255809150509060018203906000526020600020016000909192909190916101000a81548173ffffffffffffffffffffffffffffffffffffffff021916908373ffffffffffffffffffffffffffffffffffffffff1602179055505081600560003373ffffffffffffffffffffffffffffffffffffffff1673ffffffffffffffffffffffffffffffffffffffff168152602001908152602001600020600083600019166000191681526020019081526020016000208190555050505050565b6000809054906101000a900473ffffffffffffffffffffffffffffffffffffffff1673ffffffffffffffffffffffffffffffffffffffff163373ffffffffffffffffffffffffffffffffffffffff161415156108fe576040517f08c379a000000000000000000000000000000000000000000000000000000000815260040180806020018281038252601c8152602001807f43616c6c6572206973206e6f7420636f6e7472616374206f776e65720000000081525060200191505060405180910390fd5b80600060146101000a81548160ff02191690831515021790555050565b600080600060149054906101000a900460ff1615156109c8576040517f08c379a00000000000000000000000000000000000000000000000000000000081526004018080602001828103825260258152602001807f436f6e74726163742069732063757272656e746c79206e6f74206f706572617481526020017f696f6e616c00000000000000000000000000000000000000000000000000000081525060400191505060405180910390fd5b610a058686868080601f01602080910402602001604051908101604052809392919081815260200183838082843782019150505050505085611a0f565b91506080604051908101604052808773ffffffffffffffffffffffffffffffffffffffff16815260200186868080601f01602080910402602001604051908101604052809392919081815260200183838082843782019150505050505081526020018481526020016000151581525060046000846000191660001916815260200190815260200160002060008201518160000160006101000a81548173ffffffffffffffffffffffffffffffffffffffff021916908373ffffffffffffffffffffffffffffffffffffffff1602179055506020820151816001019080519060200190610af2929190611b34565b506040820151816002015560608201518160030160006101000a81548160ff02191690831515021790555090505080600660008460001916600019168152602001908152602001600020908054610b4a929190611bb4565b50826003868660405180838380828437820191505092505050908152602001604051809103902081905550505050505050565b60008060009054906101000a900473ffffffffffffffffffffffffffffffffffffffff1673ffffffffffffffffffffffffffffffffffffffff163373ffffffffffffffffffffffffffffffffffffffff16141515610c43576040517f08c379a000000000000000000000000000000000000000000000000000000000815260040180806020018281038252601c8152602001807f43616c6c6572206973206e6f7420636f6e7472616374206f776e65720000000081525060200191505060405180910390fd5b600260008373ffffffffffffffffffffffffffffffffffffffff1673ffffffffffffffffffffffffffffffffffffffff16815260200190815260200160002060000160019054906101000a900460ff169050919050565b600060149054906101000a900460ff161515610d44576040517f08c379a00000000000000000000000000000000000000000000000000000000081526004018080602001828103825260258152602001807f436f6e74726163742069732063757272656e746c79206e6f74206f706572617481526020017f696f6e616c00000000000000000000000000000000000000000000000000000081525060400191505060405180910390fd5b80600260008473ffffffffffffffffffffffffffffffffffffffff1673ffffffffffffffffffffffffffffffffffffffff168152602001908152602001600020600101819055506001600260008473ffffffffffffffffffffffffffffffffffffffff1673ffffffffffffffffffffffffffffffffffffffff16815260200190815260200160002060000160016101000a81548160ff0219169083151502179055505050565b6000809054906101000a900473ffffffffffffffffffffffffffffffffffffffff1673ffffffffffffffffffffffffffffffffffffffff163373ffffffffffffffffffffffffffffffffffffffff16141515610eae576040517f08c379a000000000000000000000000000000000000000000000000000000000815260040180806020018281038252601c8152602001807f43616c6c6572206973206e6f7420636f6e7472616374206f776e65720000000081525060200191505060405180910390fd5b600060149054906101000a900460ff161515610f58576040517f08c379a00000000000000000000000000000000000000000000000000000000081526004018080602001828103825260258152602001807f436f6e74726163742069732063757272656e746c79206e6f74206f706572617481526020017f696f6e616c00000000000000000000000000000000000000000000000000000081525060400191505060405180910390fd5b8060088190555050565b60008060149054906101000a900460ff16151561100d576040517f08c379a00000000000000000000000000000000000000000000000000000000081526004018080602001828103825260258152602001807f436f6e74726163742069732063757272656e746c79206e6f74206f706572617481526020017f696f6e616c00000000000000000000000000000000000000000000000000000081525060400191505060405180910390fd5b3273ffffffffffffffffffffffffffffffffffffffff163373ffffffffffffffffffffffffffffffffffffffff161415156110b0576040517f08c379a00000000000000000000000000000000000000000000000000000000081526004018080602001828103825260158152602001807f436f6e747261637473206e6f7420616c6c6f776564000000000000000000000081525060200191505060405180910390fd5b600760003373ffffffffffffffffffffffffffffffffffffffff1673ffffffffffffffffffffffffffffffffffffffff16815260200190815260200160002054905090565b600060149054906101000a900460ff16151561119f576040517f08c379a00000000000000000000000000000000000000000000000000000000081526004018080602001828103825260258152602001807f436f6e74726163742069732063757272656e746c79206e6f74206f706572617481526020017f696f6e616c00000000000000000000000000000000000000000000000000000081525060400191505060405180910390fd5b565b600060149054906101000a900460ff16151561124b576040517f08c379a00000000000000000000000000000000000000000000000000000000081526004018080602001828103825260258152602001807f436f6e74726163742069732063757272656e746c79206e6f74206f706572617481526020017f696f6e616c00000000000000000000000000000000000000000000000000000081525060400191505060405180910390fd5b6060604051908101604052806001151581526020016000151581526020016000815250600260008373ffffffffffffffffffffffffffffffffffffffff1673ffffffffffffffffffffffffffffffffffffffff16815260200190815260200160002060008201518160000160006101000a81548160ff02191690831515021790555060208201518160000160016101000a81548160ff021916908315150217905550604082015181600101559050506001806000828254019250508190555050565b60008060009054906101000a900473ffffffffffffffffffffffffffffffffffffffff1673ffffffffffffffffffffffffffffffffffffffff163373ffffffffffffffffffffffffffffffffffffffff161415156113d3576040517f08c379a000000000000000000000000000000000000000000000000000000000815260040180806020018281038252601c8152602001807f43616c6c6572206973206e6f7420636f6e7472616374206f776e65720000000081525060200191505060405180910390fd5b600260008373ffffffffffffffffffffffffffffffffffffffff1673ffffffffffffffffffffffffffffffffffffffff16815260200190815260200160002060000160009054906101000a900460ff169050919050565b600080600060149054906101000a900460ff1615156114d7576040517f08c379a00000000000000000000000000000000000000000000000000000000081526004018080602001828103825260258152602001807f436f6e74726163742069732063757272656e746c79206e6f74206f706572617481526020017f696f6e616c00000000000000000000000000000000000000000000000000000081525060400191505060405180910390fd5b826000151560046000836000191660001916815260200190815260200160002060030160009054906101000a900460ff1615151415156115a5576040517f08c379a00000000000000000000000000000000000000000000000000000000081526004018080602001828103825260238152602001807f496e737572656573206861766520616c7265616479206265656e20637265646981526020017f746564000000000000000000000000000000000000000000000000000000000081525060400191505060405180910390fd5b600091505b600660008560001916600019168152602001908152602001600020805490508210156116e657600660008560001916600019168152602001908152602001600020828154811015156115f857fe5b9060005260206000200160009054906101000a900473ffffffffffffffffffffffffffffffffffffffff1692506002600560008573ffffffffffffffffffffffffffffffffffffffff1673ffffffffffffffffffffffffffffffffffffffff168152602001908152602001600020600086600019166000191681526020019081526020016000205460030281151561168c57fe5b04600760008573ffffffffffffffffffffffffffffffffffffffff1673ffffffffffffffffffffffffffffffffffffffff1681526020019081526020016000206000828254019250508190555081806001019250506115aa565b600160046000866000191660001916815260200190815260200160002060030160006101000a81548160ff02191690831515021790555050505050565b60008060149054906101000a900460ff16905090565b60008060149054906101000a900460ff1615156117e4576040517f08c379a00000000000000000000000000000000000000000000000000000000081526004018080602001828103825260258152602001807f436f6e74726163742069732063757272656e746c79206e6f74206f706572617481526020017f696f6e616c00000000000000000000000000000000000000000000000000000081525060400191505060405180910390fd5b3273ffffffffffffffffffffffffffffffffffffffff163373ffffffffffffffffffffffffffffffffffffffff16141515611887576040517f08c379a00000000000000000000000000000000000000000000000000000000081526004018080602001828103825260158152602001807f436f6e747261637473206e6f7420616c6c6f776564000000000000000000000081525060200191505060405180910390fd5b6000600760003373ffffffffffffffffffffffffffffffffffffffff1673ffffffffffffffffffffffffffffffffffffffff1681526020019081526020016000205411151561193e576040517f08c379a000000000000000000000000000000000000000000000000000000000815260040180806020018281038252601b8152602001807f4e6f207061796f75742066756e647320746f207769746864726177000000000081525060200191505060405180910390fd5b600760003373ffffffffffffffffffffffffffffffffffffffff1673ffffffffffffffffffffffffffffffffffffffff1681526020019081526020016000205490506000600760003373ffffffffffffffffffffffffffffffffffffffff1673ffffffffffffffffffffffffffffffffffffffff168152602001908152602001600020819055503373ffffffffffffffffffffffffffffffffffffffff166108fc829081150290604051600060405180830381858888f19350505050158015611a0b573d6000803e3d6000fd5b5050565b6000838383604051602001808473ffffffffffffffffffffffffffffffffffffffff1673ffffffffffffffffffffffffffffffffffffffff166c0100000000000000000000000002815260140183805190602001908083835b602083101515611a8d5780518252602082019150602081019050602083039250611a68565b6001836020036101000a03801982511681845116808217855250505050505090500182815260200193505050506040516020818303038152906040526040518082805190602001908083835b602083101515611afe5780518252602082019150602081019050602083039250611ad9565b6001836020036101000a038019825116818451168082178552505050505050905001915050604051809103902090509392505050565b828054600181600116156101000203166002900490600052602060002090601f016020900481019282601f10611b7557805160ff1916838001178555611ba3565b82800160010185558215611ba3579182015b82811115611ba2578251825591602001919060010190611b87565b5b509050611bb09190611c06565b5090565b828054828255906000526020600020908101928215611bf55760005260206000209182015b82811115611bf4578254825591600101919060010190611bd9565b5b509050611c029190611c2b565b5090565b611c2891905b80821115611c24576000816000905550600101611c0c565b5090565b90565b611c6b91905b80821115611c6757600081816101000a81549073ffffffffffffffffffffffffffffffffffffffff021916905550600101611c31565b5090565b905600a165627a7a723058203829ce3296111745273ee6f56a7c03354122540bf97d875a7cd87c8bd386c3c40029",
  "source": "pragma solidity >=0.4.24;\n\nimport \"../node_modules/openzeppelin-solidity/contracts/math/SafeMath.sol\";\n\ncontract FlightSuretyData {\n    using SafeMath for uint256;\n\n    /********************************************************************************************/\n    /*                                       DATA VARIABLES                                     */\n    /********************************************************************************************/\n\n    address private contractOwner;                                      // Account used to deploy contract\n    bool private operational = true;                                    // Blocks all state changes throughout the contract if false\n\t\n\tstruct Airline {\n\t\tbool isRegistered;\n\t\tbool isFunded;\n\t\tuint256 funds;\n    }\n\t\n\tstruct Flight {        \n        address airline;\n\t\tstring flightId;\n\t\tuint256 timestamp;\n\t\tbool insureesCredited;\n    }\n\t\n\tuint256 nbAirlinesRegistered = 0;\n\tmapping(address => Airline) airlines;\n\tmapping(string => uint256) registrationTimestamp; // flightId => timestamp\n\tmapping(bytes32 => Flight) flights; // flightKey => flight\n\tmapping(address => mapping(bytes32 => uint256)) passengerPayments; // passengerAddress => flightId => payment\n\tmapping(bytes32 => address[]) flightInsuranceBuyers; // flightKey => list of insurees\n\tmapping(address => uint256) passengerCredit; // passengerAddress => insurance payout\n\tuint256 maxInsurancePurchase = 1; // 1 ether\n\n    /********************************************************************************************/\n    /*                                       EVENT DEFINITIONS                                  */\n    /********************************************************************************************/\n\n\n    /**\n    * @dev Constructor\n    *      The deploying account becomes contractOwner\n    */\n    constructor\n                                (\n\t\t\t\t\t\t\t\t\taddress airlineAddress\n                                ) \n                                public \n\t\t\t\t\t\t\t\tpayable\n    {\n        contractOwner = msg.sender;\n\t\tairlines[airlineAddress] = Airline(true,false,0);\n\t\tnbAirlinesRegistered = 1;\n    }\n\n    /********************************************************************************************/\n    /*                                       FUNCTION MODIFIERS                                 */\n    /********************************************************************************************/\n\n    // Modifiers help avoid duplication of code. They are typically used to validate something\n    // before a function is allowed to be executed.\n\n    /**\n    * @dev Modifier that requires the \"operational\" boolean variable to be \"true\"\n    *      This is used on all state changing functions to pause the contract in \n    *      the event there is an issue that needs to be fixed\n    */\n    modifier requireIsOperational() \n    {\n        require(operational, \"Contract is currently not operational\");\n        _;  // All modifiers require an \"_\" which indicates where the function body will be added\n    }\n\t\n    /**\n    * @dev Modifier that requires flight insurees have not been credited already\n    */\n\tmodifier requireNotAlreadyCredited(bytes32 flightKey) \n    {\n        require(flights[flightKey].insureesCredited==false, \"Insurees have already been credited\");\n        _;  // All modifiers require an \"_\" which indicates where the function body will be added\n    }\n\n    /**\n    * @dev Modifier that requires the \"ContractOwner\" account to be the function caller\n    */\n    modifier requireContractOwner()\n    {\n        require(msg.sender == contractOwner, \"Caller is not contract owner\");\n        _;\n    }\n\n    /********************************************************************************************/\n    /*                                       UTILITY FUNCTIONS                                  */\n    /********************************************************************************************/\n\n    /**\n    * @dev Get operating status of contract\n    *\n    * @return A bool that is the current operating status\n    */      \n    function isOperational() \n                            public \n                            view \n                            returns(bool) \n    {\n        return operational;\n    }\n\n\n    /**\n    * @dev Sets contract operations on/off\n    *\n    * When operational mode is disabled, all write transactions except for this one will fail\n    */    \n    function setOperatingStatus\n                            (\n                                bool mode\n                            ) \n                            external\n                            requireContractOwner \n    {\n        operational = mode;\n    }\n\t\n    /**\n    * Test requireIsOperational\n    *\n    */    \n    function testRequireOperational\n                            (\n                            ) \n                            external\n\t\t\t\t\t\t\tview\n                            requireIsOperational \n    {\n    }\n\t\n\t/**\n    * Is airline registered\n    *\n    */    \n    function isRegistered\n                            (\n                                address airlineAddress\n                            ) \n                            external\n\t\t\t\t\t\t\tview\n                            requireContractOwner\n\t\t\t\t\t\t\treturns(bool)\n    {\n        return airlines[airlineAddress].isRegistered;\n    }\n\n\t/**\n    * Is airline funded\n    *\n    */    \n    function isFunded\n                            (\n                                address airlineAddress\n                            ) \n                            external\n\t\t\t\t\t\t\tview\n                            requireContractOwner\n\t\t\t\t\t\t\treturns(bool)\n    {\n        return airlines[airlineAddress].isFunded;\n    }\n\t\n    /**\n    * @dev Modify maximum insurance purchase payment\n    *\n    */    \n    function modifyMaximumPurchase\n                            (\n                                uint256 newMaximum\n                            ) \n                            external\n                            requireContractOwner \n\t\t\t\t\t\t\trequireIsOperational\n    {\n        maxInsurancePurchase = newMaximum;\n    }\n\n    /********************************************************************************************/\n    /*                                     SMART CONTRACT FUNCTIONS                             */\n    /********************************************************************************************/\n\n   /**\n    * @dev Add an airline to the registration queue\n    *      Can only be called from FlightSuretyApp contract\n    *\n    */   \n    function registerAirline\n                            (   \n\t\t\t\t\t\t\t\taddress airlineAddress\n                            )\n                            external\n\t\t\t\t\t\t\trequireIsOperational\n    {\n\t\tairlines[airlineAddress] = Airline(true,false,0);\n\t\tnbAirlinesRegistered += 1;\n    }\n\n   /**\n    * @dev Register a flight\n    *      Can only be called from FlightSuretyApp contract\n    *\n    */   \n    function registerFlight\n                            (\n\t\t\t\t\t\t\t\taddress airlineAddress,\n\t\t\t\t\t\t\t\tstring flightId,\n\t\t\t\t\t\t\t\tuint256 timestamp\n\t\t\t\t\t\t\t)\n\t\t\t\t\t\t\texternal\n\t\t\t\t\t\t\trequireIsOperational\n\t{\n\t\tbytes32 flightKey = getFlightKey(airlineAddress,flightId,timestamp);\n\t\tflights[flightKey] = Flight(airlineAddress,flightId,timestamp,false);\n\t\taddress[] storage InsuranceBuyersLst;\n\t\tflightInsuranceBuyers[flightKey] = InsuranceBuyersLst;\n\t\tregistrationTimestamp[flightId] = timestamp;\n\t}\n\n   /**\n    * @dev Buy insurance for a flight\n    *\n    */   \n    function buyInsurance\n                            (           \n\t\t\t\t\t\t\t\tstring flightId,\n\t\t\t\t\t\t\t\tuint256 amount\n                            )\n                            external\n                            payable\n\t\t\t\t\t\t\trequireIsOperational\n    {\n\t\trequire(msg.sender == tx.origin, \"Contracts not allowed\");\n\t\trequire(amount > 0, \"Payment must more than 0\"); \n\t\trequire(amount < maxInsurancePurchase, \"Maximum insurance purchase exceeded\");\n\t\tbytes32 flightKey = getFlightKey(msg.sender,flightId,registrationTimestamp[flightId]);\n\t\trequire(!(passengerPayments[msg.sender][flightKey]>0),\"Passenger has already purchased insurance for this flight\");\n\t\tflightInsuranceBuyers[flightKey].push(msg.sender);\n\t\tpassengerPayments[msg.sender][flightKey] = amount;\n    }\n\n    /**\n     *  @dev Credits payouts to insurees\n    */\n    function creditInsurees\n                                (\n\t\t\t\t\t\t\t\t\tbytes32 flightKey\n                                )\n                                external\n                                requireIsOperational\n\t\t\t\t\t\t\t\trequireNotAlreadyCredited(flightKey)\n    {\t\n\t\taddress passengerAddress;\n\t\tfor (uint i = 0; i<flightInsuranceBuyers[flightKey].length; i++) {\n\t\t\tpassengerAddress = flightInsuranceBuyers[flightKey][i];\n\t\t\tpassengerCredit[passengerAddress] += 3*passengerPayments[passengerAddress][flightKey]/2; // TODO: CHECK that the default value in mapping is 0 for inexistent key\n\t\t}\n\t\tflights[flightKey].insureesCredited = true;\n    }\n    \n    /**\n     *  @dev Check insuree's eligible payout funds\n     *\n    */\n    function getWithdrawableFunds\n                            (\n                            )\n                            external\n\t\t\t\t\t\t\tpayable\n\t\t\t\t\t\t\trequireIsOperational\n\t\t\t\t\t\t\treturns(uint256)\n    {\n\t\trequire(msg.sender == tx.origin, \"Contracts not allowed\");\n\t\treturn(passengerCredit[msg.sender]);\n    }\n\n    /**\n     *  @dev Transfers eligible payout funds to insuree\n     *\n    */\n    function withdrawPayoutFunds\n                            (\n                            )\n                            external\n\t\t\t\t\t\t\tpayable\n\t\t\t\t\t\t\trequireIsOperational\n    {\n\t\trequire(msg.sender == tx.origin, \"Contracts not allowed\");\n\t\trequire(passengerCredit[msg.sender]>0, \"No payout funds to withdraw\");\n\t\tuint256 withdrawableFunds = passengerCredit[msg.sender];\n\t\tpassengerCredit[msg.sender] = 0;\n\t\tmsg.sender.transfer(withdrawableFunds); // TODO: verif passager?\n    }\n\n   /**\n    * @dev Initial funding for the insurance. Unless there are too many delayed flights\n    *      resulting in insurance payouts, the contract should be self-sustaining\n    *\n    */   \n    function fund\n                            (   \n\t\t\t\t\t\t\t\taddress airlineAddress,\n\t\t\t\t\t\t\t\tuint256 funding\n                            )\n                            public\n                            payable\n\t\t\t\t\t\t\trequireIsOperational\n    {\n\t\tairlines[airlineAddress].funds = funding;\n\t\tairlines[airlineAddress].isFunded = true;\n    }\n\n    function getFlightKey\n                        (\n                            address airline,\n                            string memory flight,\n                            uint256 timestamp\n                        )\n                        pure //view //\n                        internal\n                        returns(bytes32) \n    {\n        return keccak256(abi.encodePacked(airline, flight, timestamp));\n    }\n\n    /**\n    * @dev Fallback function\n    *\n    */\n    function() \n                            external \n                            payable \n    {\n    }\n\n\n}\n\n",
  "sourcePath": "D:\\DOCUMENTS\\Pro\\BlockChain\\FlightSurety-master\\contracts\\FlightSuretyData.sol",
  "compiler": {
    "name": "solc",
    "version": "0.4.24+commit.e67f0147.Emscripten.clang"
  },
  "schemaVersion": "2.0.1",
  "updatedAt": "2022-06-06T00:37:38.906Z"
}