{
  "contractName": "FlightSuretyApp",
  "abi": [
    {
      "constant": true,
      "inputs": [],
      "name": "REGISTRATION_FEE",
      "outputs": [
        {
          "name": "",
          "type": "uint256"
        }
      ],
      "payable": false,
      "stateMutability": "view",
      "type": "function"
    },
    {
      "inputs": [
        {
          "name": "dataContract",
          "type": "address"
        }
      ],
      "payable": false,
      "stateMutability": "nonpayable",
      "type": "constructor"
    },
    {
      "anonymous": false,
      "inputs": [
        {
          "indexed": false,
          "name": "airline",
          "type": "address"
        },
        {
          "indexed": false,
          "name": "flight",
          "type": "string"
        },
        {
          "indexed": false,
          "name": "timestamp",
          "type": "uint256"
        },
        {
          "indexed": false,
          "name": "status",
          "type": "uint8"
        }
      ],
      "name": "FlightStatusInfo",
      "type": "event"
    },
    {
      "anonymous": false,
      "inputs": [
        {
          "indexed": false,
          "name": "airline",
          "type": "address"
        },
        {
          "indexed": false,
          "name": "flight",
          "type": "string"
        },
        {
          "indexed": false,
          "name": "timestamp",
          "type": "uint256"
        },
        {
          "indexed": false,
          "name": "status",
          "type": "uint8"
        }
      ],
      "name": "OracleReport",
      "type": "event"
    },
    {
      "anonymous": false,
      "inputs": [
        {
          "indexed": false,
          "name": "index",
          "type": "uint8"
        },
        {
          "indexed": false,
          "name": "airline",
          "type": "address"
        },
        {
          "indexed": false,
          "name": "flight",
          "type": "string"
        },
        {
          "indexed": false,
          "name": "timestamp",
          "type": "uint256"
        }
      ],
      "name": "OracleRequest",
      "type": "event"
    },
    {
      "constant": true,
      "inputs": [],
      "name": "isOperational",
      "outputs": [
        {
          "name": "",
          "type": "bool"
        }
      ],
      "payable": false,
      "stateMutability": "view",
      "type": "function"
    },
    {
      "constant": false,
      "inputs": [
        {
          "name": "airlineAddress",
          "type": "address"
        }
      ],
      "name": "registerAirline",
      "outputs": [],
      "payable": false,
      "stateMutability": "nonpayable",
      "type": "function"
    },
    {
      "constant": false,
      "inputs": [],
      "name": "airlineInitialFunding",
      "outputs": [],
      "payable": false,
      "stateMutability": "nonpayable",
      "type": "function"
    },
    {
      "constant": false,
      "inputs": [
        {
          "name": "flightId",
          "type": "string"
        },
        {
          "name": "departureLocation",
          "type": "string"
        },
        {
          "name": "arrivalLocation",
          "type": "string"
        }
      ],
      "name": "registerFlight",
      "outputs": [],
      "payable": false,
      "stateMutability": "nonpayable",
      "type": "function"
    },
    {
      "constant": false,
      "inputs": [
        {
          "name": "airline",
          "type": "address"
        },
        {
          "name": "flightId",
          "type": "string"
        },
        {
          "name": "timestamp",
          "type": "uint256"
        }
      ],
      "name": "fetchFlightStatus",
      "outputs": [],
      "payable": false,
      "stateMutability": "nonpayable",
      "type": "function"
    },
    {
      "constant": false,
      "inputs": [],
      "name": "registerOracle",
      "outputs": [],
      "payable": true,
      "stateMutability": "payable",
      "type": "function"
    },
    {
      "constant": true,
      "inputs": [],
      "name": "getMyIndexes",
      "outputs": [
        {
          "name": "",
          "type": "uint8[3]"
        }
      ],
      "payable": false,
      "stateMutability": "view",
      "type": "function"
    },
    {
      "constant": false,
      "inputs": [
        {
          "name": "index",
          "type": "uint8"
        },
        {
          "name": "airline",
          "type": "address"
        },
        {
          "name": "flight",
          "type": "string"
        },
        {
          "name": "timestamp",
          "type": "uint256"
        },
        {
          "name": "statusCode",
          "type": "uint8"
        }
      ],
      "name": "submitOracleResponse",
      "outputs": [],
      "payable": false,
      "stateMutability": "nonpayable",
      "type": "function"
    }
  ],
  "bytecode": "0x6080604052678ac7230489e8000060085560006009556000600a60006101000a81548160ff021916908360ff16021790555034801561003d57600080fd5b50604051602080613ad08339810180604052810190808051906020019092919050505033600160006101000a81548173ffffffffffffffffffffffffffffffffffffffff021916908373ffffffffffffffffffffffffffffffffffffffff160217905550806000806101000a81548173ffffffffffffffffffffffffffffffffffffffff021916908373ffffffffffffffffffffffffffffffffffffffff160217905550506139df806100f16000396000f300608060405260043610610099576000357c0100000000000000000000000000000000000000000000000000000000900463ffffffff168063339d25901461009e57806338d36216146100a85780635f1cc0e6146100bf57806364b4f75114610112578063bdfd98771461013d578063c10f270014610180578063cd905dff146101ff578063d62e55f31461022e578063f83f11c014610299575b600080fd5b6100a66102fe565b005b3480156100b457600080fd5b506100bd610580565b005b3480156100cb57600080fd5b506100d4610a91565b6040518082600360200280838360005b838110156100ff5780820151818401526020810190506100e4565b5050505090500191505060405180910390f35b34801561011e57600080fd5b50610127610c06565b6040518082815260200191505060405180910390f35b34801561014957600080fd5b5061017e600480360381019080803573ffffffffffffffffffffffffffffffffffffffff169060200190929190505050610c12565b005b34801561018c57600080fd5b506101fd600480360381019080803560ff169060200190929190803573ffffffffffffffffffffffffffffffffffffffff16906020019092919080359060200190820180359060200191909192939192939080359060200190929190803560ff169060200190929190505050611c9c565b005b34801561020b57600080fd5b506102146122b5565b604051808215151515815260200191505060405180910390f35b34801561023a57600080fd5b5061029760048036038101908080359060200190820180359060200191909192939192939080359060200190820180359060200191909192939192939080359060200190820180359060200191909192939192939050505061237c565b005b3480156102a557600080fd5b506102fc600480360381019080803573ffffffffffffffffffffffffffffffffffffffff16906020019092919080359060200190820180359060200191909192939192939080359060200190929190505050612c4e565b005b610306613754565b6000809054906101000a900473ffffffffffffffffffffffffffffffffffffffff1673ffffffffffffffffffffffffffffffffffffffff1663cd905dff6040518163ffffffff167c0100000000000000000000000000000000000000000000000000000000028152600401602060405180830381600087803b15801561038b57600080fd5b505af115801561039f573d6000803e3d6000fd5b505050506040513d60208110156103b557600080fd5b81019080805190602001909291905050501515610460576040517f08c379a00000000000000000000000000000000000000000000000000000000081526004018080602001828103825260258152602001807f436f6e74726163742069732063757272656e746c79206e6f74206f706572617481526020017f696f6e616c00000000000000000000000000000000000000000000000000000081525060400191505060405180910390fd5b670de0b6b3a764000034101515156104e0576040517f08c379a000000000000000000000000000000000000000000000000000000000815260040180806020018281038252601c8152602001807f526567697374726174696f6e206665652069732072657175697265640000000081525060200191505060405180910390fd5b6104e933613012565b9050604080519081016040528060011515815260200182815250600b60003373ffffffffffffffffffffffffffffffffffffffff1673ffffffffffffffffffffffffffffffffffffffff16815260200190815260200160002060008201518160000160006101000a81548160ff021916908315150217905550602082015181600101906003610579929190613777565b5090505050565b6000809054906101000a900473ffffffffffffffffffffffffffffffffffffffff1673ffffffffffffffffffffffffffffffffffffffff1663cd905dff6040518163ffffffff167c0100000000000000000000000000000000000000000000000000000000028152600401602060405180830381600087803b15801561060557600080fd5b505af1158015610619573d6000803e3d6000fd5b505050506040513d602081101561062f57600080fd5b810190808051906020019092919050505015156106da576040517f08c379a00000000000000000000000000000000000000000000000000000000081526004018080602001828103825260258152602001807f436f6e74726163742069732063757272656e746c79206e6f74206f706572617481526020017f696f6e616c00000000000000000000000000000000000000000000000000000081525060400191505060405180910390fd5b6000809054906101000a900473ffffffffffffffffffffffffffffffffffffffff1673ffffffffffffffffffffffffffffffffffffffff1663c3c5a547336040518263ffffffff167c0100000000000000000000000000000000000000000000000000000000028152600401808273ffffffffffffffffffffffffffffffffffffffff1673ffffffffffffffffffffffffffffffffffffffff168152602001915050602060405180830381600087803b15801561079657600080fd5b505af11580156107aa573d6000803e3d6000fd5b505050506040513d60208110156107c057600080fd5b81019080805190602001909291905050501515610845576040517f08c379a00000000000000000000000000000000000000000000000000000000081526004018080602001828103825260198152602001807f4169726c696e65206973206e6f7420726567697374657265640000000000000081525060200191505060405180910390fd5b6000809054906101000a900473ffffffffffffffffffffffffffffffffffffffff1673ffffffffffffffffffffffffffffffffffffffff16635689b249336040518263ffffffff167c0100000000000000000000000000000000000000000000000000000000028152600401808273ffffffffffffffffffffffffffffffffffffffff1673ffffffffffffffffffffffffffffffffffffffff168152602001915050602060405180830381600087803b15801561090157600080fd5b505af1158015610915573d6000803e3d6000fd5b505050506040513d602081101561092b57600080fd5b81019080805190602001909291905050501515156109b1576040517f08c379a00000000000000000000000000000000000000000000000000000000081526004018080602001828103825260198152602001807f4169726c696e6520697320616c72656164792066756e6465640000000000000081525060200191505060405180910390fd5b6000809054906101000a900473ffffffffffffffffffffffffffffffffffffffff1673ffffffffffffffffffffffffffffffffffffffff16637b1837de336008546040518363ffffffff167c0100000000000000000000000000000000000000000000000000000000028152600401808373ffffffffffffffffffffffffffffffffffffffff1673ffffffffffffffffffffffffffffffffffffffff16815260200182815260200192505050600060405180830381600087803b158015610a7757600080fd5b505af1158015610a8b573d6000803e3d6000fd5b50505050565b610a99613754565b600b60003373ffffffffffffffffffffffffffffffffffffffff1673ffffffffffffffffffffffffffffffffffffffff16815260200190815260200160002060000160009054906101000a900460ff161515610b5d576040517f08c379a000000000000000000000000000000000000000000000000000000000815260040180806020018281038252601b8152602001807f4e6f74207265676973746572656420617320616e206f7261636c65000000000081525060200191505060405180910390fd5b600b60003373ffffffffffffffffffffffffffffffffffffffff1673ffffffffffffffffffffffffffffffffffffffff168152602001908152602001600020600101600380602002604051908101604052809291908260038015610bfc576020028201916000905b82829054906101000a900460ff1660ff1681526020019060010190602082600001049283019260010382029150808411610bc55790505b5050505050905090565b670de0b6b3a764000081565b60008060008060009054906101000a900473ffffffffffffffffffffffffffffffffffffffff1673ffffffffffffffffffffffffffffffffffffffff1663cd905dff6040518163ffffffff167c0100000000000000000000000000000000000000000000000000000000028152600401602060405180830381600087803b158015610c9c57600080fd5b505af1158015610cb0573d6000803e3d6000fd5b505050506040513d6020811015610cc657600080fd5b81019080805190602001909291905050501515610d71576040517f08c379a00000000000000000000000000000000000000000000000000000000081526004018080602001828103825260258152602001807f436f6e74726163742069732063757272656e746c79206e6f74206f706572617481526020017f696f6e616c00000000000000000000000000000000000000000000000000000081525060400191505060405180910390fd5b6000809054906101000a900473ffffffffffffffffffffffffffffffffffffffff1673ffffffffffffffffffffffffffffffffffffffff1663c3c5a547336040518263ffffffff167c0100000000000000000000000000000000000000000000000000000000028152600401808273ffffffffffffffffffffffffffffffffffffffff1673ffffffffffffffffffffffffffffffffffffffff168152602001915050602060405180830381600087803b158015610e2d57600080fd5b505af1158015610e41573d6000803e3d6000fd5b505050506040513d6020811015610e5757600080fd5b81019080805190602001909291905050501515610edc576040517f08c379a00000000000000000000000000000000000000000000000000000000081526004018080602001828103825260198152602001807f4169726c696e65206973206e6f7420726567697374657265640000000000000081525060200191505060405180910390fd5b6000809054906101000a900473ffffffffffffffffffffffffffffffffffffffff1673ffffffffffffffffffffffffffffffffffffffff16635689b249336040518263ffffffff167c0100000000000000000000000000000000000000000000000000000000028152600401808273ffffffffffffffffffffffffffffffffffffffff1673ffffffffffffffffffffffffffffffffffffffff168152602001915050602060405180830381600087803b158015610f9857600080fd5b505af1158015610fac573d6000803e3d6000fd5b505050506040513d6020811015610fc257600080fd5b81019080805190602001909291905050501515611047576040517f08c379a00000000000000000000000000000000000000000000000000000000081526004018080602001828103825260158152602001807f4169726c696e65206973206e6f742066756e646564000000000000000000000081525060200191505060405180910390fd5b836000809054906101000a900473ffffffffffffffffffffffffffffffffffffffff1673ffffffffffffffffffffffffffffffffffffffff1663c3c5a547826040518263ffffffff167c0100000000000000000000000000000000000000000000000000000000028152600401808273ffffffffffffffffffffffffffffffffffffffff1673ffffffffffffffffffffffffffffffffffffffff168152602001915050602060405180830381600087803b15801561110457600080fd5b505af1158015611118573d6000803e3d6000fd5b505050506040513d602081101561112e57600080fd5b81019080805190602001909291905050501515156111b4576040517f08c379a000000000000000000000000000000000000000000000000000000000815260040180806020018281038252601d8152602001807f4169726c696e6520697320616c7265616479207265676973746572656400000081525060200191505060405180910390fd5b84600080600080600060019450600093505b600480549050841015611252578573ffffffffffffffffffffffffffffffffffffffff166004858154811015156111f957fe5b9060005260206000200160009054906101000a900473ffffffffffffffffffffffffffffffffffffffff1673ffffffffffffffffffffffffffffffffffffffff16141561124557600094505b83806001019450506111c6565b8415156113d357600560008773ffffffffffffffffffffffffffffffffffffffff1673ffffffffffffffffffffffffffffffffffffffff168152602001908152602001600020925060019150600090505b8260010180549050811015611337573373ffffffffffffffffffffffffffffffffffffffff1683600101828154811015156112da57fe5b9060005260206000200160009054906101000a900473ffffffffffffffffffffffffffffffffffffffff1673ffffffffffffffffffffffffffffffffffffffff16141561132a5760009150611337565b80806001019150506112a3565b8115156113d2576040517f08c379a000000000000000000000000000000000000000000000000000000000815260040180806020018281038252602a8152602001807f596f7520616c726561647920766f74656420746f20726567697374657220746881526020017f6973206169726c696e650000000000000000000000000000000000000000000081525060400191505060405180910390fd5b5b600460095411151561160f576000809054906101000a900473ffffffffffffffffffffffffffffffffffffffff1673ffffffffffffffffffffffffffffffffffffffff1663bdfd98778c6040518263ffffffff167c0100000000000000000000000000000000000000000000000000000000028152600401808273ffffffffffffffffffffffffffffffffffffffff1673ffffffffffffffffffffffffffffffffffffffff168152602001915050600060405180830381600087803b15801561149b57600080fd5b505af11580156114af573d6000803e3d6000fd5b505050506060604051908101604052806001151581526020016000151581526020018980548060200260200160405190810160405280929190818152602001828054801561155257602002820191906000526020600020905b8160009054906101000a900473ffffffffffffffffffffffffffffffffffffffff1673ffffffffffffffffffffffffffffffffffffffff1681526020019060010190808311611508575b5050505050815250600660008d73ffffffffffffffffffffffffffffffffffffffff1673ffffffffffffffffffffffffffffffffffffffff16815260200190815260200160002060008201518160000160006101000a81548160ff02191690831515021790555060208201518160000160016101000a81548160ff02191690831515021790555060408201518160010190805190602001906115f5929190613811565b509050506001600960008282540192505081905550611c8f565b60009950600098505b6004805490508910156116a8578a73ffffffffffffffffffffffffffffffffffffffff1660048a81548110151561164b57fe5b9060005260206000200160009054906101000a900473ffffffffffffffffffffffffffffffffffffffff1673ffffffffffffffffffffffffffffffffffffffff16141561169b57600199506116a8565b8880600101995050611618565b89156118c45760048b90806001815401808255809150509060018203906000526020600020016000909192909190916101000a81548173ffffffffffffffffffffffffffffffffffffffff021916908373ffffffffffffffffffffffffffffffffffffffff16021790555050873390806001815401808255809150509060018203906000526020600020016000909192909190916101000a81548173ffffffffffffffffffffffffffffffffffffffff021916908373ffffffffffffffffffffffffffffffffffffffff160217905550506060604051908101604052806000151581526020016000151581526020018980548060200260200160405190810160405280929190818152602001828054801561181857602002820191906000526020600020905b8160009054906101000a900473ffffffffffffffffffffffffffffffffffffffff1673ffffffffffffffffffffffffffffffffffffffff16815260200190600101908083116117ce575b5050505050815250600560008d73ffffffffffffffffffffffffffffffffffffffff1673ffffffffffffffffffffffffffffffffffffffff16815260200190815260200160002060008201518160000160006101000a81548160ff02191690831515021790555060208201518160000160016101000a81548160ff02191690831515021790555060408201518160010190805190602001906118bb929190613811565b50905050611c8e565b600560008c73ffffffffffffffffffffffffffffffffffffffff1673ffffffffffffffffffffffffffffffffffffffff1681526020019081526020016000206001013390806001815401808255809150509060018203906000526020600020016000909192909190916101000a81548173ffffffffffffffffffffffffffffffffffffffff021916908373ffffffffffffffffffffffffffffffffffffffff16021790555050600260095481151561197857fe5b04600560008d73ffffffffffffffffffffffffffffffffffffffff1673ffffffffffffffffffffffffffffffffffffffff168152602001908152602001600020600101805490501115611c8d576000809054906101000a900473ffffffffffffffffffffffffffffffffffffffff1673ffffffffffffffffffffffffffffffffffffffff1663bdfd98778c6040518263ffffffff167c0100000000000000000000000000000000000000000000000000000000028152600401808273ffffffffffffffffffffffffffffffffffffffff1673ffffffffffffffffffffffffffffffffffffffff168152602001915050600060405180830381600087803b158015611a8157600080fd5b505af1158015611a95573d6000803e3d6000fd5b50505050606060405190810160405280600115158152602001600015158152602001600560008e73ffffffffffffffffffffffffffffffffffffffff1673ffffffffffffffffffffffffffffffffffffffff168152602001908152602001600020600101805480602002602001604051908101604052809291908181526020018280548015611b7957602002820191906000526020600020905b8160009054906101000a900473ffffffffffffffffffffffffffffffffffffffff1673ffffffffffffffffffffffffffffffffffffffff1681526020019060010190808311611b2f575b5050505050815250600660008d73ffffffffffffffffffffffffffffffffffffffff1673ffffffffffffffffffffffffffffffffffffffff16815260200190815260200160002060008201518160000160006101000a81548160ff02191690831515021790555060208201518160000160016101000a81548160ff0219169083151502179055506040820151816001019080519060200190611c1c929190613811565b509050506001600560008d73ffffffffffffffffffffffffffffffffffffffff1673ffffffffffffffffffffffffffffffffffffffff16815260200190815260200160002060000160006101000a81548160ff02191690831515021790555060016009600082825401925050819055505b5b5b5050505050505050505050565b60008660ff16600b60003373ffffffffffffffffffffffffffffffffffffffff1673ffffffffffffffffffffffffffffffffffffffff1681526020019081526020016000206001016000600381101515611cf257fe5b602091828204019190069054906101000a900460ff1660ff161480611d8157508660ff16600b60003373ffffffffffffffffffffffffffffffffffffffff1673ffffffffffffffffffffffffffffffffffffffff1681526020019081526020016000206001016001600381101515611d6657fe5b602091828204019190069054906101000a900460ff1660ff16145b80611df657508660ff16600b60003373ffffffffffffffffffffffffffffffffffffffff1673ffffffffffffffffffffffffffffffffffffffff1681526020019081526020016000206001016002600381101515611ddb57fe5b602091828204019190069054906101000a900460ff1660ff16145b1515611e90576040517f08c379a00000000000000000000000000000000000000000000000000000000081526004018080602001828103825260238152602001807f496e64657820646f6573206e6f74206d61746368206f7261636c65207265717581526020017f657374000000000000000000000000000000000000000000000000000000000081525060400191505060405180910390fd5b8686868686604051602001808660ff1660ff167f01000000000000000000000000000000000000000000000000000000000000000281526001018573ffffffffffffffffffffffffffffffffffffffff1673ffffffffffffffffffffffffffffffffffffffff166c010000000000000000000000000281526014018484808284378201915050828152602001955050505050506040516020818303038152906040526040518082805190602001908083835b602083101515611f675780518252602082019150602081019050602083039250611f42565b6001836020036101000a03801982511681845116808217855250505050505090500191505060405180910390209050600c6000826000191660001916815260200190815260200160002060000160149054906101000a900460ff16151561205c576040517f08c379a000000000000000000000000000000000000000000000000000000000815260040180806020018281038252602f8152602001807f466c69676874206f722074696d657374616d7020646f206e6f74206d6174636881526020017f206f7261636c652072657175657374000000000000000000000000000000000081525060400191505060405180910390fd5b600c6000826000191660001916815260200190815260200160002060010160008360ff1660ff1681526020019081526020016000203390806001815401808255809150509060018203906000526020600020016000909192909190916101000a81548173ffffffffffffffffffffffffffffffffffffffff021916908373ffffffffffffffffffffffffffffffffffffffff160217905550507f43c853095c2752648493c88b4baac4d580d2594ffb00c6f1d4242d844514f7838686868686604051808673ffffffffffffffffffffffffffffffffffffffff1673ffffffffffffffffffffffffffffffffffffffff168152602001806020018481526020018360ff1660ff16815260200182810382528686828181526020019250808284378201915050965050505050505060405180910390a16003600c6000836000191660001916815260200190815260200160002060010160008460ff1660ff168152602001908152602001600020805490501015156122ac577fe23f5229de535c091e3b7bec2665f5d698192d3b31393066e8987b7a05076b6c8686868686604051808673ffffffffffffffffffffffffffffffffffffffff1673ffffffffffffffffffffffffffffffffffffffff168152602001806020018481526020018360ff1660ff16815260200182810382528686828181526020019250808284378201915050965050505050505060405180910390a16122ab8686868080601f01602080910402602001604051908101604052809392919081815260200183838082843782019150505050505085856131b8565b5b50505050505050565b60008060009054906101000a900473ffffffffffffffffffffffffffffffffffffffff1673ffffffffffffffffffffffffffffffffffffffff1663cd905dff6040518163ffffffff167c0100000000000000000000000000000000000000000000000000000000028152600401602060405180830381600087803b15801561233c57600080fd5b505af1158015612350573d6000803e3d6000fd5b505050506040513d602081101561236657600080fd5b8101908080519060200190929190505050905090565b6000806000809054906101000a900473ffffffffffffffffffffffffffffffffffffffff1673ffffffffffffffffffffffffffffffffffffffff1663cd905dff6040518163ffffffff167c0100000000000000000000000000000000000000000000000000000000028152600401602060405180830381600087803b15801561240457600080fd5b505af1158015612418573d6000803e3d6000fd5b505050506040513d602081101561242e57600080fd5b810190808051906020019092919050505015156124d9576040517f08c379a00000000000000000000000000000000000000000000000000000000081526004018080602001828103825260258152602001807f436f6e74726163742069732063757272656e746c79206e6f74206f706572617481526020017f696f6e616c00000000000000000000000000000000000000000000000000000081525060400191505060405180910390fd5b6000809054906101000a900473ffffffffffffffffffffffffffffffffffffffff1673ffffffffffffffffffffffffffffffffffffffff1663c3c5a547336040518263ffffffff167c0100000000000000000000000000000000000000000000000000000000028152600401808273ffffffffffffffffffffffffffffffffffffffff1673ffffffffffffffffffffffffffffffffffffffff168152602001915050602060405180830381600087803b15801561259557600080fd5b505af11580156125a9573d6000803e3d6000fd5b505050506040513d60208110156125bf57600080fd5b81019080805190602001909291905050501515612644576040517f08c379a00000000000000000000000000000000000000000000000000000000081526004018080602001828103825260198152602001807f4169726c696e65206973206e6f7420726567697374657265640000000000000081525060200191505060405180910390fd5b6000809054906101000a900473ffffffffffffffffffffffffffffffffffffffff1673ffffffffffffffffffffffffffffffffffffffff16635689b249336040518263ffffffff167c0100000000000000000000000000000000000000000000000000000000028152600401808273ffffffffffffffffffffffffffffffffffffffff1673ffffffffffffffffffffffffffffffffffffffff168152602001915050602060405180830381600087803b15801561270057600080fd5b505af1158015612714573d6000803e3d6000fd5b505050506040513d602081101561272a57600080fd5b810190808051906020019092919050505015156127af576040517f08c379a00000000000000000000000000000000000000000000000000000000081526004018080602001828103825260158152602001807f4169726c696e65206973206e6f742066756e646564000000000000000000000081525060200191505060405180910390fd5b87878080601f0160208091040260200160405190810160405280939291908181526020018383808284378201915050505050506003816040518082805190602001908083835b60208310151561281a57805182526020820191506020810190506020830392506127f5565b6001836020036101000a038019825116818451168082178552505050505050905001915050908152602001604051809103902060009054906101000a900460ff161515156128d0576040517f08c379a000000000000000000000000000000000000000000000000000000000815260040180806020018281038252601c8152602001807f466c6967687420697320616c726561647920726567697374657265640000000081525060200191505060405180910390fd5b429250612910338a8a8080601f016020809104026020016040519081016040528093929190818152602001838380828437820191505050505050856134cd565b91506000809054906101000a900473ffffffffffffffffffffffffffffffffffffffff1673ffffffffffffffffffffffffffffffffffffffff16633cc0be9c338b8b876040518563ffffffff167c0100000000000000000000000000000000000000000000000000000000028152600401808573ffffffffffffffffffffffffffffffffffffffff1673ffffffffffffffffffffffffffffffffffffffff168152602001806020018381526020018281038252858582818152602001925080828437820191505095505050505050600060405180830381600087803b1580156129f857600080fd5b505af1158015612a0c573d6000803e3d6000fd5b5050505061010060405190810160405280600115158152602001600060ff1681526020018481526020013373ffffffffffffffffffffffffffffffffffffffff1681526020018a8a8080601f016020809104026020016040519081016040528093929190818152602001838380828437820191505050505050815260200188888080601f016020809104026020016040519081016040528093929190818152602001838380828437820191505050505050815260200186868080601f0160208091040260200160405190810160405280939291908181526020018383808284378201915050505050508152602001836000191681525060026000846000191660001916815260200190815260200160002060008201518160000160006101000a81548160ff02191690831515021790555060208201518160000160016101000a81548160ff021916908360ff1602179055506040820151816001015560608201518160020160006101000a81548173ffffffffffffffffffffffffffffffffffffffff021916908373ffffffffffffffffffffffffffffffffffffffff1602179055506080820151816003019080519060200190612bcb92919061389b565b5060a0820151816004019080519060200190612be892919061389b565b5060c0820151816005019080519060200190612c0592919061389b565b5060e082015181600601906000191690559050508260078a8a60405180838380828437820191505092505050908152602001604051809103902081905550505050505050505050565b6000806000809054906101000a900473ffffffffffffffffffffffffffffffffffffffff1673ffffffffffffffffffffffffffffffffffffffff1663cd905dff6040518163ffffffff167c0100000000000000000000000000000000000000000000000000000000028152600401602060405180830381600087803b158015612cd657600080fd5b505af1158015612cea573d6000803e3d6000fd5b505050506040513d6020811015612d0057600080fd5b81019080805190602001909291905050501515612dab576040517f08c379a00000000000000000000000000000000000000000000000000000000081526004018080602001828103825260258152602001807f436f6e74726163742069732063757272656e746c79206e6f74206f706572617481526020017f696f6e616c00000000000000000000000000000000000000000000000000000081525060400191505060405180910390fd5b612db4336135f2565b91508186868686604051602001808660ff1660ff167f01000000000000000000000000000000000000000000000000000000000000000281526001018573ffffffffffffffffffffffffffffffffffffffff1673ffffffffffffffffffffffffffffffffffffffff166c010000000000000000000000000281526014018484808284378201915050828152602001955050505050506040516020818303038152906040526040518082805190602001908083835b602083101515612e8d5780518252602082019150602081019050602083039250612e68565b6001836020036101000a0380198251168184511680821785525050505050509050019150506040518091039020905060408051908101604052803373ffffffffffffffffffffffffffffffffffffffff16815260200160011515815250600c6000836000191660001916815260200190815260200160002060008201518160000160006101000a81548173ffffffffffffffffffffffffffffffffffffffff021916908373ffffffffffffffffffffffffffffffffffffffff16021790555060208201518160000160146101000a81548160ff0219169083151502179055509050507f3ed01f2c3fc24c6b329d931e35b03e390d23497d22b3f90e15b600343e93df118287878787604051808660ff1660ff1681526020018573ffffffffffffffffffffffffffffffffffffffff1673ffffffffffffffffffffffffffffffffffffffff1681526020018060200183815260200182810382528585828181526020019250808284378201915050965050505050505060405180910390a1505050505050565b61301a613754565b613022613754565b61302b836135f2565b81600060038110151561303a57fe5b602002019060ff16908160ff168152505080600060038110151561305a57fe5b602002015181600160038110151561306e57fe5b602002019060ff16908160ff16815250505b80600060038110151561308f57fe5b602002015160ff168160016003811015156130a657fe5b602002015160ff1614156130e2576130bd836135f2565b8160016003811015156130cc57fe5b602002019060ff16908160ff1681525050613080565b8060016003811015156130f157fe5b602002015181600260038110151561310557fe5b602002019060ff16908160ff16815250505b80600060038110151561312657fe5b602002015160ff1681600260038110151561313d57fe5b602002015160ff16148061317c575080600160038110151561315b57fe5b602002015160ff1681600260038110151561317257fe5b602002015160ff16145b156131af5761318a836135f2565b81600260038110151561319957fe5b602002019060ff16908160ff1681525050613117565b80915050919050565b6000806000809054906101000a900473ffffffffffffffffffffffffffffffffffffffff1673ffffffffffffffffffffffffffffffffffffffff1663cd905dff6040518163ffffffff167c0100000000000000000000000000000000000000000000000000000000028152600401602060405180830381600087803b15801561324057600080fd5b505af1158015613254573d6000803e3d6000fd5b505050506040513d602081101561326a57600080fd5b81019080805190602001909291905050501515613315576040517f08c379a00000000000000000000000000000000000000000000000000000000081526004018080602001828103825260258152602001807f436f6e74726163742069732063757272656e746c79206e6f74206f706572617481526020017f696f6e616c00000000000000000000000000000000000000000000000000000081525060400191505060405180910390fd5b61338b86866007886040518082805190602001908083835b602083101515613352578051825260208201915060208101905060208303925061332d565b6001836020036101000a0380198251168184511680821785525050505050509050019150509081526020016040518091039020546134cd565b9150600260008360001916600019168152602001908152602001600020905060008160000160019054906101000a900460ff1660ff1614156134a257828160000160016101000a81548160ff021916908360ff16021790555060148360ff1614156134a1576000809054906101000a900473ffffffffffffffffffffffffffffffffffffffff1673ffffffffffffffffffffffffffffffffffffffff1663cc2f6eba836040518263ffffffff167c0100000000000000000000000000000000000000000000000000000000028152600401808260001916600019168152602001915050600060405180830381600087803b15801561348857600080fd5b505af115801561349c573d6000803e3d6000fd5b505050505b5b8360026000846000191660001916815260200190815260200160002060010181905550505050505050565b6000838383604051602001808473ffffffffffffffffffffffffffffffffffffffff1673ffffffffffffffffffffffffffffffffffffffff166c0100000000000000000000000002815260140183805190602001908083835b60208310151561354b5780518252602082019150602081019050602083039250613526565b6001836020036101000a03801982511681845116808217855250505050505090500182815260200193505050506040516020818303038152906040526040518082805190602001908083835b6020831015156135bc5780518252602082019150602081019050602083039250613597565b6001836020036101000a038019825116818451168082178552505050505050905001915050604051809103902090509392505050565b6000806000600a91508160ff16600a600081819054906101000a900460ff168092919060010191906101000a81548160ff021916908360ff16021790555060ff16430340856040516020018083600019166000191681526020018273ffffffffffffffffffffffffffffffffffffffff1673ffffffffffffffffffffffffffffffffffffffff166c01000000000000000000000000028152601401925050506040516020818303038152906040526040518082805190602001908083835b6020831015156136d557805182526020820191506020810190506020830392506136b0565b6001836020036101000a03801982511681845116808217855250505050505090500191505060405180910390206001900481151561370f57fe5b06905060fa600a60009054906101000a900460ff1660ff16111561374a576000600a60006101000a81548160ff021916908360ff1602179055505b8092505050919050565b606060405190810160405280600390602082028038833980820191505090505090565b826003601f016020900481019282156138005791602002820160005b838211156137d157835183826101000a81548160ff021916908360ff1602179055509260200192600101602081600001049283019260010302613793565b80156137fe5782816101000a81549060ff02191690556001016020816000010492830192600103026137d1565b505b50905061380d919061391b565b5090565b82805482825590600052602060002090810192821561388a579160200282015b828111156138895782518260006101000a81548173ffffffffffffffffffffffffffffffffffffffff021916908373ffffffffffffffffffffffffffffffffffffffff16021790555091602001919060010190613831565b5b509050613897919061394b565b5090565b828054600181600116156101000203166002900490600052602060002090601f016020900481019282601f106138dc57805160ff191683800117855561390a565b8280016001018555821561390a579182015b828111156139095782518255916020019190600101906138ee565b5b509050613917919061398e565b5090565b61394891905b8082111561394457600081816101000a81549060ff021916905550600101613921565b5090565b90565b61398b91905b8082111561398757600081816101000a81549073ffffffffffffffffffffffffffffffffffffffff021916905550600101613951565b5090565b90565b6139b091905b808211156139ac576000816000905550600101613994565b5090565b905600a165627a7a72305820bea4589af031332f2305356b3e269044966207513d3e2d0903ca497c058deae10029",
  "source": "pragma solidity >=0.4.24;\n\n// It's important to avoid vulnerabilities due to numeric overflow bugs\n// OpenZeppelin's SafeMath library, when used correctly, protects agains such bugs\n// More info: https://www.nccgroup.trust/us/about-us/newsroom-and-events/blog/2018/november/smart-contract-insecurity-bad-arithmetic/\n\nimport \"../node_modules/openzeppelin-solidity/contracts/math/SafeMath.sol\";\n\n/************************************************** */\n/* FlightSurety Smart Contract                      */\n/************************************************** */\ncontract FlightSuretyApp {\n    using SafeMath for uint256; // Allow SafeMath functions to be called for all uint256 types (similar to \"prototype\" in Javascript)\n\n    /********************************************************************************************/\n    /*                                       DATA VARIABLES                                     */\n    /********************************************************************************************/\n\n\tFlightSuretyData flightSuretyData;\n    // Flight status codes\n    uint8 private constant STATUS_CODE_UNKNOWN = 0;\n    uint8 private constant STATUS_CODE_ON_TIME = 10;\n    uint8 private constant STATUS_CODE_LATE_AIRLINE = 20;\n    uint8 private constant STATUS_CODE_LATE_WEATHER = 30;\n    uint8 private constant STATUS_CODE_LATE_TECHNICAL = 40;\n    uint8 private constant STATUS_CODE_LATE_OTHER = 50;\n\n    address private contractOwner;          // Account used to deploy contract\n\n\tstruct Airline {\n\t\tbool isRegistered;\n\t\tbool isFunded;\n\t\taddress[] voters;\n\t}\n\n    struct Flight {\n        bool isRegistered;\n        uint8 statusCode;\n        uint256 updatedTimestamp;        \n        address airline;\n\t\tstring flightId;\n\t\tstring departureLocation;\n\t\tstring arrivalLocation;\n\t\tbytes32 flightKey;\n    }\n\t\n    mapping(bytes32 => Flight) private flights;\n\tmapping(string => bool) private registeredFlights; // flightId => registration status\n\taddress[] candidateAirlinesAddresses;\n\tmapping(address => Airline) candidateAirlines;\n\tmapping(address => Airline) registeredAirlines;\n\tmapping(string => uint256) registrationTimestamp; // flightId => timestamp\n\t\n\tuint256 RequiredInitialFunding = 10 ether;\n\tuint256 nbAirlinesRegistered = 0;\n \n    /********************************************************************************************/\n    /*                                       FUNCTION MODIFIERS                                 */\n    /********************************************************************************************/\n\n    // Modifiers help avoid duplication of code. They are typically used to validate something\n    // before a function is allowed to be executed.\n\n    /**\n    * @dev Modifier that requires the \"operational\" boolean variable to be \"true\"\n    *      This is used on all state changing functions to pause the contract in \n    *      the event there is an issue that needs to be fixed\n    */\n    modifier requireIsOperational() \n    {\n         // Modify to call data contract's status\t\t\n        require(flightSuretyData.isOperational(), \"Contract is currently not operational\");  \n        _;  // All modifiers require an \"_\" which indicates where the function body will be added\n    }\n\t\n    /**\n    * \t   Modifier that requires the caller has not voted yet for a candidate airline\n    *      This is used to prevent a registered airline from voting more than once\n    */\n\tmodifier requireHasNotVotedYet(address candidateAirlineAddress)\n\t{\n\t\tbool newCandidate = true;\n\t\tfor (uint a = 0; a < candidateAirlinesAddresses.length; a++) {\n\t\t\tif (candidateAirlinesAddresses[a] == candidateAirlineAddress) {\n\t\t\t\tnewCandidate = false;\n\t\t\t}\n\t\t}\n\t\tif (!newCandidate) {\n\t\t\tAirline storage candidateAirline = candidateAirlines[candidateAirlineAddress];\n\t\t\tbool hasNotVoted = true;\n\t\t\tfor (uint i = 0; i < candidateAirline.voters.length; i++) {\n\t\t\t\tif (candidateAirline.voters[i] == msg.sender) {\n\t\t\t\t\thasNotVoted = false;\n\t\t\t\t\tbreak;\n\t\t\t\t}\n\t\t\t}\n\t\t\trequire(hasNotVoted,\"You already voted to register this airline\");\n\t\t}\n        _;  \n\t}\n\t\n    /**\n    * @dev Modifier that requires the calling airline account to be registered \n    */\n    modifier requireIsAirlineRegistered()\n    {\n        require(flightSuretyData.isRegistered(msg.sender), \"Airline is not registered\");\n        _;\n    }\n\t\n\t/**\n    * @dev Modifier that requires the calling airline account to be registered \n    */\n    modifier requireIsFunded()\n    {\n        require(flightSuretyData.isFunded(msg.sender), \"Airline is not funded\");\n        _;\n    }\n\t\n    /**\n    * @dev Modifier that requires the candidate airline account to not be already registered \n    */\n    modifier requireIsNotRegistered(address airlineAddress)\n    {\n        require(!flightSuretyData.isRegistered(airlineAddress), \"Airline is already registered\");\n        _;\n    }\n\t\n    modifier requireIsAirlineFunded()\n    {\n        require(flightSuretyData.isFunded(msg.sender), \"Airline is not funded\");\n        _;\n    }\n\n    /**\n    * @dev Modifier that requires the airline account to not be already funded \n    */\n    modifier requireIsNotFunded()\n    {\n        require(!flightSuretyData.isFunded(msg.sender), \"Airline is already funded\");\n        _;\n    }\n\n    /**\n    * @dev Modifier that requires the flight to not be already registered \n    */\n    modifier requireIsNotFlightRegistered(string flightId)\n    {\n        require(!registeredFlights[flightId], \"Flight is already registered\");\n        _;\n    }\n\n    /**\n    * @dev Modifier that requires the \"ContractOwner\" account to be the function caller\n    */\n    modifier requireContractOwner()\n    {\n        require(msg.sender == contractOwner, \"Caller is not contract owner\");\n        _;\n    }\n\n    /********************************************************************************************/\n    /*                                       CONSTRUCTOR                                        */\n    /********************************************************************************************/\n\n    /**\n    * @dev Contract constructor\n    *\n    */\n    constructor\n                                (\n\t\t\t\t\t\t\t\t\taddress dataContract\n                                ) \n                                public \n    {\n        contractOwner = msg.sender;\n\t\tflightSuretyData = FlightSuretyData(dataContract);\n    }\n\n    /********************************************************************************************/\n    /*                                       UTILITY FUNCTIONS                                  */\n    /********************************************************************************************/\n\n    function isOperational() \n                            public \n                            view \n                            returns(bool) \n    {\n\t\treturn flightSuretyData.isOperational();\n    }\n\n    /********************************************************************************************/\n    /*                                     SMART CONTRACT FUNCTIONS                             */\n    /********************************************************************************************/\n\n    /**\n    * @dev Add an airline to the registration queue\n    *\n    */   \n    function registerAirline\n                            (   \n\t\t\t\t\t\t\t\taddress airlineAddress\n                            )\n                            external\n\t\t\t\t\t\t\trequireIsOperational \n\t\t\t\t\t\t\trequireIsAirlineRegistered // calling airline\n\t\t\t\t\t\t\trequireIsFunded // calling airline\n\t\t\t\t\t\t\trequireIsNotRegistered(airlineAddress) // candidate airline\n\t\t\t\t\t\t\trequireHasNotVotedYet(airlineAddress)\n    {\n\t\tif (nbAirlinesRegistered <= 4){\n\t\t\tflightSuretyData.registerAirline(airlineAddress); // TODO: test/check for failures\n\t\t\tregisteredAirlines[airlineAddress] = Airline(true,false,airlineVoters);\n\t\t\tnbAirlinesRegistered += 1;\n\t\t}\n\t\telse {\n\t\t\tbool newCandidate = false;\n\t\t\tfor (uint a = 0; a < candidateAirlinesAddresses.length; a++) {\n\t\t\t\tif (candidateAirlinesAddresses[a] == airlineAddress) {\n\t\t\t\t\tnewCandidate = true;\n\t\t\t\t\tbreak;\n\t\t\t\t}\n\t\t\t}\n\t\t\tif (newCandidate) {\n\t\t\t\tcandidateAirlinesAddresses.push(airlineAddress);\n\t\t\t\taddress[] storage airlineVoters;\n\t\t\t\tairlineVoters.push(msg.sender);\n\t\t\t\tcandidateAirlines[airlineAddress] = Airline(false,false,airlineVoters);\n\t\t\t}\n\t\t\telse {\n\t\t\t\tcandidateAirlines[airlineAddress].voters.push(msg.sender);\n\t\t\t\tif (candidateAirlines[airlineAddress].voters.length>(nbAirlinesRegistered/2)) {\n\t\t\t\t\tflightSuretyData.registerAirline(airlineAddress);\n\t\t\t\t\tregisteredAirlines[airlineAddress] = Airline(true,false,candidateAirlines[airlineAddress].voters);\n\t\t\t\t\tcandidateAirlines[airlineAddress].isRegistered = true;\n\t\t\t\t\tnbAirlinesRegistered += 1;\n\t\t\t\t}\n\t\t\t}\n\t\t}\n    }\n\n    /**\n    * @dev Airline submits initial funding\n    *\n    */   \n    function airlineInitialFunding\n                            (   \n                            )\n                            external\n\t\t\t\t\t\t\trequireIsOperational \n\t\t\t\t\t\t\trequireIsAirlineRegistered\n\t\t\t\t\t\t\trequireIsNotFunded\n\t{\n\t\tflightSuretyData.fund(msg.sender,RequiredInitialFunding);\n\t}\n\n    /**\n    * @dev Register a future flight for insuring.\n    *\n    */  \n    function registerFlight\n                                (\n\t\t\t\t\t\t\t\t\tstring flightId,\n\t\t\t\t\t\t\t\t\tstring departureLocation,\n\t\t\t\t\t\t\t\t\tstring arrivalLocation\n                                )\n                                external\n\t\t\t\t\t\t\t\trequireIsOperational\n\t\t\t\t\t\t\t\trequireIsAirlineRegistered\n\t\t\t\t\t\t\t\trequireIsAirlineFunded\n\t\t\t\t\t\t\t\trequireIsNotFlightRegistered(flightId)\n    {\n\t\tuint256 timestamp = block.timestamp;\n\t\tbytes32 flightKey = getFlightKey(msg.sender,flightId,timestamp);\n\t\tflightSuretyData.registerFlight(msg.sender,flightId,timestamp);\n\t\tflights[flightKey] = Flight(true,0,timestamp,msg.sender,flightId,departureLocation,arrivalLocation,flightKey);\n\t\tregistrationTimestamp[flightId] = timestamp;\n    }\n    \n    /**\n    * @dev Called after oracle has updated flight status\n    *\n    */  \n    function processFlightStatus\n                                (\n                                    address airline,\n                                    string memory flightId,\n                                    uint256 timestamp,\n                                    uint8 statusCode\n                                )\n                                internal\n\t\t\t\t\t\t\t\trequireIsOperational\n    {\t\n\t\tbytes32 flightKey = getFlightKey(airline,flightId,registrationTimestamp[flightId]);\n\t\tFlight storage flight = flights[flightKey];\n\t\tif (flight.statusCode == 0) { // status still unknown\n\t\t\tflight.statusCode = statusCode;\n\t\t\tif (statusCode == 20) // Delay due to airline\n\t\t\t{\n\t\t\t\tflightSuretyData.creditInsurees(flightKey);\n\t\t\t}\n\t\t}\n\t\tflights[flightKey].updatedTimestamp = timestamp;\n    }\n\n\n    // Generate a request for oracles to fetch flight information\n    function fetchFlightStatus\n                        (\n                            address airline,\n                            string flightId,\n                            uint256 timestamp                            \n                        )\n                        external\n\t\t\t\t\t\trequireIsOperational\n    {\n        uint8 index = getRandomIndex(msg.sender);\n\n        // Generate a unique key for storing the request\n        bytes32 key = keccak256(abi.encodePacked(index, airline, flightId, timestamp));\n        oracleResponses[key] = ResponseInfo({\n                                                requester: msg.sender,\n                                                isOpen: true\n                                            });\n\n        emit OracleRequest(index, airline, flightId, timestamp);\n    } \n\n\n// region ORACLE MANAGEMENT\n\n    // Incremented to add pseudo-randomness at various points\n    uint8 private nonce = 0;    \n\n    // Fee to be paid when registering oracle\n    uint256 public constant REGISTRATION_FEE = 1 ether;\n\n    // Number of oracles that must respond for valid status\n    uint256 private constant MIN_RESPONSES = 3;\n\n\n    struct Oracle {\n        bool isRegistered;\n        uint8[3] indexes;        \n    }\n\n    // Track all registered oracles\n    mapping(address => Oracle) private oracles;\n\n    // Model for responses from oracles\n    struct ResponseInfo {\n        address requester;                              // Account that requested status\n        bool isOpen;                                    // If open, oracle responses are accepted\n        mapping(uint8 => address[]) responses;          // Mapping key is the status code reported\n                                                        // This lets us group responses and identify\n                                                        // the response that majority of the oracles\n    }\n\n    // Track all oracle responses\n    // Key = hash(index, flight, timestamp)\n    mapping(bytes32 => ResponseInfo) private oracleResponses;\n\n    // Event fired each time an oracle submits a response\n    event FlightStatusInfo(address airline, string flight, uint256 timestamp, uint8 status);\n\n    event OracleReport(address airline, string flight, uint256 timestamp, uint8 status);\n\n    // Event fired when flight status request is submitted\n    // Oracles track this and if they have a matching index\n    // they fetch data and submit a response\n    event OracleRequest(uint8 index, address airline, string flight, uint256 timestamp);\n\n\n    // Register an oracle with the contract\n    function registerOracle\n                            (\n                            )\n                            external\n                            payable\n\t\t\t\t\t\t\trequireIsOperational\n    {\n        // Require registration fee\n        require(msg.value >= REGISTRATION_FEE, \"Registration fee is required\");\n\n        uint8[3] memory indexes = generateIndexes(msg.sender);\n\n        oracles[msg.sender] = Oracle({\n                                        isRegistered: true,\n                                        indexes: indexes\n                                    });\n    }\n\n    function getMyIndexes\n                            (\n                            )\n                            view\n                            external\n                            returns(uint8[3])\n    {\n        require(oracles[msg.sender].isRegistered, \"Not registered as an oracle\");\n\n        return oracles[msg.sender].indexes;\n    }\n\n\n\n\n    // Called by oracle when a response is available to an outstanding request\n    // For the response to be accepted, there must be a pending request that is open\n    // and matches one of the three Indexes randomly assigned to the oracle at the\n    // time of registration (i.e. uninvited oracles are not welcome)\n    function submitOracleResponse\n                        (\n                            uint8 index,\n                            address airline,\n                            string flight,\n                            uint256 timestamp,\n                            uint8 statusCode\n                        )\n                        external\n    {\n        require((oracles[msg.sender].indexes[0] == index) || (oracles[msg.sender].indexes[1] == index) || (oracles[msg.sender].indexes[2] == index), \"Index does not match oracle request\");\n\n\n        bytes32 key = keccak256(abi.encodePacked(index, airline, flight, timestamp)); \n        require(oracleResponses[key].isOpen, \"Flight or timestamp do not match oracle request\");\n\n        oracleResponses[key].responses[statusCode].push(msg.sender);\n\n        // Information isn't considered verified until at least MIN_RESPONSES\n        // oracles respond with the *** same *** information\n        emit OracleReport(airline, flight, timestamp, statusCode);\n        if (oracleResponses[key].responses[statusCode].length >= MIN_RESPONSES) {\n\n            emit FlightStatusInfo(airline, flight, timestamp, statusCode);\n\n            // Handle flight status as appropriate\n            processFlightStatus(airline, flight, timestamp, statusCode);\n        }\n    }\n\n\n    function getFlightKey\n                        (\n                            address airline,\n                            string flight,\n                            uint256 timestamp\n                        )\n                        pure\n                        internal\n                        returns(bytes32) \n    {\n        return keccak256(abi.encodePacked(airline, flight, timestamp));\n    }\n\n    // Returns array of three non-duplicating integers from 0-9\n    function generateIndexes\n                            (                       \n                                address account         \n                            )\n                            internal\n                            returns(uint8[3])\n    {\n        uint8[3] memory indexes;\n        indexes[0] = getRandomIndex(account);\n        \n        indexes[1] = indexes[0];\n        while(indexes[1] == indexes[0]) {\n            indexes[1] = getRandomIndex(account);\n        }\n\n        indexes[2] = indexes[1];\n        while((indexes[2] == indexes[0]) || (indexes[2] == indexes[1])) {\n            indexes[2] = getRandomIndex(account);\n        }\n\n        return indexes;\n    }\n\n    // Returns array of three non-duplicating integers from 0-9\n    function getRandomIndex\n                            (\n                                address account\n                            )\n                            internal\n                            returns (uint8)\n    {\n        uint8 maxValue = 10;\n\n        // Pseudo random number...the incrementing nonce adds variation\n        uint8 random = uint8(uint256(keccak256(abi.encodePacked(blockhash(block.number - nonce++), account))) % maxValue);\n\n        if (nonce > 250) {\n            nonce = 0;  // Can only fetch blockhashes for last 256 blocks so we adapt\n        }\n\n        return random;\n    }\n\n// endregion\n\n}   \n\ncontract FlightSuretyData {\n\tfunction isOperational() public view returns(bool); //\n    function isRegistered(address airlineAddress) external view returns(bool);\n\tfunction isFunded(address airlineAddress) external view returns(bool);\n\tfunction registerAirline(address airlineAddress) external;\n\tfunction fund(address airlineAddress,uint256 funding) public payable;\n\tfunction registerFlight(address airlineAddress,string flightId,uint256 timestamp) external;\n\tfunction creditInsurees(bytes32 flightKey) external;\n}\n",
  "sourcePath": "D:\\DOCUMENTS\\Pro\\BlockChain\\FlightSurety-master\\contracts\\FlightSuretyApp.sol",
  "compiler": {
    "name": "solc",
    "version": "0.4.24+commit.e67f0147.Emscripten.clang"
  },
  "schemaVersion": "2.0.1",
  "updatedAt": "2022-06-06T00:37:38.892Z"
}